{
  "_format": "hh-sol-artifact-1",
  "contractName": "SalaryPayment",
  "sourceName": "contracts/payrollSC.sol",
  "abi": [
    {
      "inputs": [
        {
          "internalType": "string",
          "name": "_name",
          "type": "string"
        },
        {
          "internalType": "address payable",
          "name": "_wallet",
          "type": "address"
        },
        {
          "internalType": "uint256",
          "name": "_salary",
          "type": "uint256"
        }
      ],
      "name": "addEmployee",
      "outputs": [],
      "stateMutability": "nonpayable",
      "type": "function"
    },
    {
      "inputs": [
        {
          "internalType": "address",
          "name": "",
          "type": "address"
        }
      ],
      "name": "employees",
      "outputs": [
        {
          "internalType": "uint256",
          "name": "salary",
          "type": "uint256"
        },
        {
          "internalType": "string",
          "name": "name",
          "type": "string"
        },
        {
          "internalType": "address payable",
          "name": "wallet",
          "type": "address"
        },
        {
          "internalType": "address",
          "name": "companyAddress",
          "type": "address"
        }
      ],
      "stateMutability": "view",
      "type": "function"
    },
    {
      "inputs": [],
      "name": "getAllCompanyEmployee",
      "outputs": [
        {
          "components": [
            {
              "internalType": "uint256",
              "name": "salary",
              "type": "uint256"
            },
            {
              "internalType": "string",
              "name": "name",
              "type": "string"
            },
            {
              "internalType": "address payable",
              "name": "wallet",
              "type": "address"
            },
            {
              "internalType": "address",
              "name": "companyAddress",
              "type": "address"
            }
          ],
          "internalType": "struct SalaryPayment.Employee[]",
          "name": "c",
          "type": "tuple[]"
        }
      ],
      "stateMutability": "view",
      "type": "function"
    },
    {
      "inputs": [
        {
          "internalType": "address",
          "name": "_wallet",
          "type": "address"
        }
      ],
      "name": "getEmployee",
      "outputs": [
        {
          "internalType": "uint256",
          "name": "",
          "type": "uint256"
        },
        {
          "internalType": "string",
          "name": "",
          "type": "string"
        },
        {
          "internalType": "address",
          "name": "",
          "type": "address"
        }
      ],
      "stateMutability": "view",
      "type": "function"
    },
    {
      "inputs": [],
      "name": "paySalaries",
      "outputs": [],
      "stateMutability": "payable",
      "type": "function"
    },
    {
      "inputs": [],
      "name": "salaryDate",
      "outputs": [
        {
          "internalType": "uint256",
          "name": "",
          "type": "uint256"
        }
      ],
      "stateMutability": "view",
      "type": "function"
    },
    {
      "inputs": [
        {
          "internalType": "uint256",
          "name": "_salaryDate",
          "type": "uint256"
        }
      ],
      "name": "setSalaryDate",
      "outputs": [],
      "stateMutability": "nonpayable",
      "type": "function"
    }
  ],
  "bytecode": "0x608060405233600460006101000a81548173ffffffffffffffffffffffffffffffffffffffff021916908373ffffffffffffffffffffffffffffffffffffffff16021790555034801561005157600080fd5b50611863806100616000396000f3fe6080604052600436106100705760003560e01c80635202fe5a1161004e5780635202fe5a146100e95780636cf947cf14610112578063d06789471461013b578063e4eacbb91461017b57610070565b8063244855351461007557806332648e09146100a057806342e36b3b146100df575b600080fd5b34801561008157600080fd5b5061008a6101a6565b60405161009791906110c5565b60405180910390f35b3480156100ac57600080fd5b506100c760048036038101906100c29190611152565b6101ac565b6040516100d693929190611227565b60405180910390f35b6100e7610330565b005b3480156100f557600080fd5b50610110600480360381019061010b9190611291565b61054b565b005b34801561011e57600080fd5b5061013960048036038101906101349190611431565b6105e7565b005b34801561014757600080fd5b50610162600480360381019061015d9190611152565b610987565b60405161017294939291906114af565b60405180910390f35b34801561018757600080fd5b50610190610a7f565b60405161019d9190611697565b60405180910390f35b60025481565b6000606060008060008573ffffffffffffffffffffffffffffffffffffffff1673ffffffffffffffffffffffffffffffffffffffff168152602001908152602001600020600001546000808673ffffffffffffffffffffffffffffffffffffffff1673ffffffffffffffffffffffffffffffffffffffff1681526020019081526020016000206001016000808773ffffffffffffffffffffffffffffffffffffffff1673ffffffffffffffffffffffffffffffffffffffff16815260200190815260200160002060020160009054906101000a900473ffffffffffffffffffffffffffffffffffffffff168180546102a3906116e8565b80601f01602080910402602001604051908101604052809291908181526020018280546102cf906116e8565b801561031c5780601f106102f15761010080835404028352916020019161031c565b820191906000526020600020905b8154815290600101906020018083116102ff57829003601f168201915b505050505091509250925092509193909250565b600460009054906101000a900473ffffffffffffffffffffffffffffffffffffffff168073ffffffffffffffffffffffffffffffffffffffff163373ffffffffffffffffffffffffffffffffffffffff16146103c1576040517f08c379a00000000000000000000000000000000000000000000000000000000081526004016103b890611766565b60405180910390fd5b60005b60018054905081101561054757600080600183815481106103e8576103e7611786565b5b9060005260206000200160009054906101000a900473ffffffffffffffffffffffffffffffffffffffff1673ffffffffffffffffffffffffffffffffffffffff1673ffffffffffffffffffffffffffffffffffffffff16815260200190815260200160002060020160009054906101000a900473ffffffffffffffffffffffffffffffffffffffff1673ffffffffffffffffffffffffffffffffffffffff166108fc600080600185815481106104a1576104a0611786565b5b9060005260206000200160009054906101000a900473ffffffffffffffffffffffffffffffffffffffff1673ffffffffffffffffffffffffffffffffffffffff1673ffffffffffffffffffffffffffffffffffffffff168152602001908152602001600020600001549081150290604051600060405180830381858888f19350505050158015610535573d6000803e3d6000fd5b5080610540906117e4565b90506103c4565b5050565b600460009054906101000a900473ffffffffffffffffffffffffffffffffffffffff168073ffffffffffffffffffffffffffffffffffffffff163373ffffffffffffffffffffffffffffffffffffffff16146105dc576040517f08c379a00000000000000000000000000000000000000000000000000000000081526004016105d390611766565b60405180910390fd5b816002819055505050565b600460009054906101000a900473ffffffffffffffffffffffffffffffffffffffff168073ffffffffffffffffffffffffffffffffffffffff163373ffffffffffffffffffffffffffffffffffffffff1614610678576040517f08c379a000000000000000000000000000000000000000000000000000000000815260040161066f90611766565b60405180910390fd5b60405180608001604052808381526020018581526020018473ffffffffffffffffffffffffffffffffffffffff1681526020013373ffffffffffffffffffffffffffffffffffffffff168152506000808573ffffffffffffffffffffffffffffffffffffffff1673ffffffffffffffffffffffffffffffffffffffff168152602001908152602001600020600082015181600001556020820151816001019080519060200190610729929190610f28565b5060408201518160020160006101000a81548173ffffffffffffffffffffffffffffffffffffffff021916908373ffffffffffffffffffffffffffffffffffffffff16021790555060608201518160030160006101000a81548173ffffffffffffffffffffffffffffffffffffffff021916908373ffffffffffffffffffffffffffffffffffffffff1602179055509050506001839080600181540180825580915050600190039060005260206000200160009091909190916101000a81548173ffffffffffffffffffffffffffffffffffffffff021916908373ffffffffffffffffffffffffffffffffffffffff16021790555060036000808573ffffffffffffffffffffffffffffffffffffffff1673ffffffffffffffffffffffffffffffffffffffff16815260200190815260200160002090806001815401808255809150506001900390600052602060002090600402016000909190919091506000820154816000015560018201816001019080546108a5906116e8565b6108b0929190610fae565b506002820160009054906101000a900473ffffffffffffffffffffffffffffffffffffffff168160020160006101000a81548173ffffffffffffffffffffffffffffffffffffffff021916908373ffffffffffffffffffffffffffffffffffffffff1602179055506003820160009054906101000a900473ffffffffffffffffffffffffffffffffffffffff168160030160006101000a81548173ffffffffffffffffffffffffffffffffffffffff021916908373ffffffffffffffffffffffffffffffffffffffff160217905550505050505050565b60006020528060005260406000206000915090508060000154908060010180546109b0906116e8565b80601f01602080910402602001604051908101604052809291908181526020018280546109dc906116e8565b8015610a295780601f106109fe57610100808354040283529160200191610a29565b820191906000526020600020905b815481529060010190602001808311610a0c57829003601f168201915b5050505050908060020160009054906101000a900473ffffffffffffffffffffffffffffffffffffffff16908060030160009054906101000a900473ffffffffffffffffffffffffffffffffffffffff16905084565b6060600460009054906101000a900473ffffffffffffffffffffffffffffffffffffffff168073ffffffffffffffffffffffffffffffffffffffff163373ffffffffffffffffffffffffffffffffffffffff1614610b12576040517f08c379a0000000000000000000000000000000000000000000000000000000008152600401610b0990611766565b60405180910390fd5b610cba6003805480602002602001604051908101604052809291908181526020016000905b82821015610cb1578382906000526020600020906004020160405180608001604052908160008201548152602001600182018054610b74906116e8565b80601f0160208091040260200160405190810160405280929190818152602001828054610ba0906116e8565b8015610bed5780601f10610bc257610100808354040283529160200191610bed565b820191906000526020600020905b815481529060010190602001808311610bd057829003601f168201915b505050505081526020016002820160009054906101000a900473ffffffffffffffffffffffffffffffffffffffff1673ffffffffffffffffffffffffffffffffffffffff1673ffffffffffffffffffffffffffffffffffffffff1681526020016003820160009054906101000a900473ffffffffffffffffffffffffffffffffffffffff1673ffffffffffffffffffffffffffffffffffffffff1673ffffffffffffffffffffffffffffffffffffffff168152505081526020019060010190610b37565b50505050610cc0565b91505090565b60606000825167ffffffffffffffff811115610cdf57610cde6112c8565b5b604051908082528060200260200182016040528015610d1857816020015b610d0561103b565b815260200190600190039081610cfd5790505b50905060005b8351811015610f1e573373ffffffffffffffffffffffffffffffffffffffff16848281518110610d5157610d50611786565b5b60200260200101516060015173ffffffffffffffffffffffffffffffffffffffff161415610f0d5760038181548110610d8d57610d8c611786565b5b906000526020600020906004020160405180608001604052908160008201548152602001600182018054610dc0906116e8565b80601f0160208091040260200160405190810160405280929190818152602001828054610dec906116e8565b8015610e395780601f10610e0e57610100808354040283529160200191610e39565b820191906000526020600020905b815481529060010190602001808311610e1c57829003601f168201915b505050505081526020016002820160009054906101000a900473ffffffffffffffffffffffffffffffffffffffff1673ffffffffffffffffffffffffffffffffffffffff1673ffffffffffffffffffffffffffffffffffffffff1681526020016003820160009054906101000a900473ffffffffffffffffffffffffffffffffffffffff1673ffffffffffffffffffffffffffffffffffffffff1673ffffffffffffffffffffffffffffffffffffffff1681525050828281518110610f0157610f00611786565b5b60200260200101819052505b80610f17906117e4565b9050610d1e565b5080915050919050565b828054610f34906116e8565b90600052602060002090601f016020900481019282610f565760008555610f9d565b82601f10610f6f57805160ff1916838001178555610f9d565b82800160010185558215610f9d579182015b82811115610f9c578251825591602001919060010190610f81565b5b509050610faa919061108f565b5090565b828054610fba906116e8565b90600052602060002090601f016020900481019282610fdc576000855561102a565b82601f10610fed578054855561102a565b8280016001018555821561102a57600052602060002091601f016020900482015b8281111561102957825482559160010191906001019061100e565b5b509050611037919061108f565b5090565b60405180608001604052806000815260200160608152602001600073ffffffffffffffffffffffffffffffffffffffff168152602001600073ffffffffffffffffffffffffffffffffffffffff1681525090565b5b808211156110a8576000816000905550600101611090565b5090565b6000819050919050565b6110bf816110ac565b82525050565b60006020820190506110da60008301846110b6565b92915050565b6000604051905090565b600080fd5b600080fd5b600073ffffffffffffffffffffffffffffffffffffffff82169050919050565b600061111f826110f4565b9050919050565b61112f81611114565b811461113a57600080fd5b50565b60008135905061114c81611126565b92915050565b600060208284031215611168576111676110ea565b5b60006111768482850161113d565b91505092915050565b600081519050919050565b600082825260208201905092915050565b60005b838110156111b957808201518184015260208101905061119e565b838111156111c8576000848401525b50505050565b6000601f19601f8301169050919050565b60006111ea8261117f565b6111f4818561118a565b935061120481856020860161119b565b61120d816111ce565b840191505092915050565b61122181611114565b82525050565b600060608201905061123c60008301866110b6565b818103602083015261124e81856111df565b905061125d6040830184611218565b949350505050565b61126e816110ac565b811461127957600080fd5b50565b60008135905061128b81611265565b92915050565b6000602082840312156112a7576112a66110ea565b5b60006112b58482850161127c565b91505092915050565b600080fd5b600080fd5b7f4e487b7100000000000000000000000000000000000000000000000000000000600052604160045260246000fd5b611300826111ce565b810181811067ffffffffffffffff8211171561131f5761131e6112c8565b5b80604052505050565b60006113326110e0565b905061133e82826112f7565b919050565b600067ffffffffffffffff82111561135e5761135d6112c8565b5b611367826111ce565b9050602081019050919050565b82818337600083830152505050565b600061139661139184611343565b611328565b9050828152602081018484840111156113b2576113b16112c3565b5b6113bd848285611374565b509392505050565b600082601f8301126113da576113d96112be565b5b81356113ea848260208601611383565b91505092915050565b60006113fe826110f4565b9050919050565b61140e816113f3565b811461141957600080fd5b50565b60008135905061142b81611405565b92915050565b60008060006060848603121561144a576114496110ea565b5b600084013567ffffffffffffffff811115611468576114676110ef565b5b611474868287016113c5565b93505060206114858682870161141c565b92505060406114968682870161127c565b9150509250925092565b6114a9816113f3565b82525050565b60006080820190506114c460008301876110b6565b81810360208301526114d681866111df565b90506114e560408301856114a0565b6114f26060830184611218565b95945050505050565b600081519050919050565b600082825260208201905092915050565b6000819050602082019050919050565b611530816110ac565b82525050565b600082825260208201905092915050565b60006115528261117f565b61155c8185611536565b935061156c81856020860161119b565b611575816111ce565b840191505092915050565b611589816113f3565b82525050565b61159881611114565b82525050565b60006080830160008301516115b66000860182611527565b50602083015184820360208601526115ce8282611547565b91505060408301516115e36040860182611580565b5060608301516115f6606086018261158f565b508091505092915050565b600061160d838361159e565b905092915050565b6000602082019050919050565b600061162d826114fb565b6116378185611506565b93508360208202850161164985611517565b8060005b8581101561168557848403895281516116668582611601565b945061167183611615565b925060208a0199505060018101905061164d565b50829750879550505050505092915050565b600060208201905081810360008301526116b18184611622565b905092915050565b7f4e487b7100000000000000000000000000000000000000000000000000000000600052602260045260246000fd5b6000600282049050600182168061170057607f821691505b60208210811415611714576117136116b9565b5b50919050565b7f496e76616c696420616464726573730000000000000000000000000000000000600082015250565b6000611750600f8361118a565b915061175b8261171a565b602082019050919050565b6000602082019050818103600083015261177f81611743565b9050919050565b7f4e487b7100000000000000000000000000000000000000000000000000000000600052603260045260246000fd5b7f4e487b7100000000000000000000000000000000000000000000000000000000600052601160045260246000fd5b60006117ef826110ac565b91507fffffffffffffffffffffffffffffffffffffffffffffffffffffffffffffffff821415611822576118216117b5565b5b60018201905091905056fea2646970667358221220ec5c220e735fc8a4e28fe705df4a817646fd84b5c4ffbe4ca23a55280d22d64764736f6c63430008090033",
  "linkReferences": {},
  "deployedLinkReferences": {}
}