{
  "_format": "hh-sol-artifact-1",
  "contractName": "SalaryPayment",
  "sourceName": "contracts/payrollSC.sol",
  "abi": [
    {
      "inputs": [
        {
          "internalType": "string",
          "name": "_name",
          "type": "string"
        },
        {
          "internalType": "address payable",
          "name": "_wallet",
          "type": "address"
        },
        {
          "internalType": "uint256",
          "name": "_salary",
          "type": "uint256"
        }
      ],
      "name": "addEmployee",
      "outputs": [],
      "stateMutability": "nonpayable",
      "type": "function"
    },
    {
      "inputs": [
        {
          "internalType": "address",
          "name": "",
          "type": "address"
        }
      ],
      "name": "employees",
      "outputs": [
        {
          "internalType": "uint256",
          "name": "salary",
          "type": "uint256"
        },
        {
          "internalType": "string",
          "name": "name",
          "type": "string"
        },
        {
          "internalType": "address payable",
          "name": "wallet",
          "type": "address"
        },
        {
          "internalType": "address",
          "name": "companyAddress",
          "type": "address"
        }
      ],
      "stateMutability": "view",
      "type": "function"
    },
    {
      "inputs": [],
      "name": "getAddressBalance",
      "outputs": [
        {
          "internalType": "uint256",
          "name": "",
          "type": "uint256"
        }
      ],
      "stateMutability": "view",
      "type": "function"
    },
    {
      "inputs": [],
      "name": "getAllCompanyEmployee",
      "outputs": [
        {
          "components": [
            {
              "internalType": "uint256",
              "name": "salary",
              "type": "uint256"
            },
            {
              "internalType": "string",
              "name": "name",
              "type": "string"
            },
            {
              "internalType": "address payable",
              "name": "wallet",
              "type": "address"
            },
            {
              "internalType": "address",
              "name": "companyAddress",
              "type": "address"
            }
          ],
          "internalType": "struct SalaryPayment.Employee[]",
          "name": "c",
          "type": "tuple[]"
        }
      ],
      "stateMutability": "view",
      "type": "function"
    },
    {
      "inputs": [
        {
          "internalType": "address",
          "name": "_wallet",
          "type": "address"
        }
      ],
      "name": "getEmployee",
      "outputs": [
        {
          "internalType": "uint256",
          "name": "",
          "type": "uint256"
        },
        {
          "internalType": "string",
          "name": "",
          "type": "string"
        },
        {
          "internalType": "address",
          "name": "",
          "type": "address"
        }
      ],
      "stateMutability": "view",
      "type": "function"
    },
    {
      "inputs": [],
      "name": "paySalaries",
      "outputs": [],
      "stateMutability": "payable",
      "type": "function"
    },
    {
      "inputs": [],
      "name": "receivePayment",
      "outputs": [],
      "stateMutability": "payable",
      "type": "function"
    },
    {
      "inputs": [],
      "name": "salaryDate",
      "outputs": [
        {
          "internalType": "uint256",
          "name": "",
          "type": "uint256"
        }
      ],
      "stateMutability": "view",
      "type": "function"
    },
    {
      "inputs": [
        {
          "internalType": "uint256",
          "name": "_salaryDate",
          "type": "uint256"
        }
      ],
      "name": "setSalaryDate",
      "outputs": [],
      "stateMutability": "nonpayable",
      "type": "function"
    }
  ],
  "bytecode": "0x608060405233600460006101000a81548173ffffffffffffffffffffffffffffffffffffffff021916908373ffffffffffffffffffffffffffffffffffffffff16021790555034801561005157600080fd5b50611604806100616000396000f3fe6080604052600436106100865760003560e01c80636cf947cf116100595780636cf947cf1461012857806375eb2ad114610151578063835c19f31461017c578063d067894714610186578063e4eacbb9146101c657610086565b8063244855351461008b57806332648e09146100b657806342e36b3b146100f55780635202fe5a146100ff575b600080fd5b34801561009757600080fd5b506100a06101f1565b6040516100ad9190610ed2565b60405180910390f35b3480156100c257600080fd5b506100dd60048036038101906100d89190610f5f565b6101f7565b6040516100ec93929190611034565b60405180910390f35b6100fd61037b565b005b34801561010b57600080fd5b506101266004803603810190610121919061109e565b610504565b005b34801561013457600080fd5b5061014f600480360381019061014a919061123e565b61050e565b005b34801561015d57600080fd5b5061016661081c565b6040516101739190610ed2565b60405180910390f35b610184610824565b005b34801561019257600080fd5b506101ad60048036038101906101a89190610f5f565b610826565b6040516101bd94939291906112bc565b60405180910390f35b3480156101d257600080fd5b506101db61091e565b6040516101e891906114a4565b60405180910390f35b60025481565b6000606060008060008573ffffffffffffffffffffffffffffffffffffffff1673ffffffffffffffffffffffffffffffffffffffff168152602001908152602001600020600001546000808673ffffffffffffffffffffffffffffffffffffffff1673ffffffffffffffffffffffffffffffffffffffff1681526020019081526020016000206001016000808773ffffffffffffffffffffffffffffffffffffffff1673ffffffffffffffffffffffffffffffffffffffff16815260200190815260200160002060020160009054906101000a900473ffffffffffffffffffffffffffffffffffffffff168180546102ee906114f5565b80601f016020809104026020016040519081016040528092919081815260200182805461031a906114f5565b80156103675780601f1061033c57610100808354040283529160200191610367565b820191906000526020600020905b81548152906001019060200180831161034a57829003601f168201915b505050505091509250925092509193909250565b60005b60018054905081101561050157600080600183815481106103a2576103a1611527565b5b9060005260206000200160009054906101000a900473ffffffffffffffffffffffffffffffffffffffff1673ffffffffffffffffffffffffffffffffffffffff1673ffffffffffffffffffffffffffffffffffffffff16815260200190815260200160002060020160009054906101000a900473ffffffffffffffffffffffffffffffffffffffff1673ffffffffffffffffffffffffffffffffffffffff166108fc6000806001858154811061045b5761045a611527565b5b9060005260206000200160009054906101000a900473ffffffffffffffffffffffffffffffffffffffff1673ffffffffffffffffffffffffffffffffffffffff1673ffffffffffffffffffffffffffffffffffffffff168152602001908152602001600020600001549081150290604051600060405180830381858888f193505050501580156104ef573d6000803e3d6000fd5b50806104fa90611585565b905061037e565b50565b8060028190555050565b60405180608001604052808281526020018481526020018373ffffffffffffffffffffffffffffffffffffffff1681526020013373ffffffffffffffffffffffffffffffffffffffff168152506000808473ffffffffffffffffffffffffffffffffffffffff1673ffffffffffffffffffffffffffffffffffffffff1681526020019081526020016000206000820151816000015560208201518160010190805190602001906105bf929190610d35565b5060408201518160020160006101000a81548173ffffffffffffffffffffffffffffffffffffffff021916908373ffffffffffffffffffffffffffffffffffffffff16021790555060608201518160030160006101000a81548173ffffffffffffffffffffffffffffffffffffffff021916908373ffffffffffffffffffffffffffffffffffffffff1602179055509050506001829080600181540180825580915050600190039060005260206000200160009091909190916101000a81548173ffffffffffffffffffffffffffffffffffffffff021916908373ffffffffffffffffffffffffffffffffffffffff16021790555060036000808473ffffffffffffffffffffffffffffffffffffffff1673ffffffffffffffffffffffffffffffffffffffff168152602001908152602001600020908060018154018082558091505060019003906000526020600020906004020160009091909190915060008201548160000155600182018160010190805461073b906114f5565b610746929190610dbb565b506002820160009054906101000a900473ffffffffffffffffffffffffffffffffffffffff168160020160006101000a81548173ffffffffffffffffffffffffffffffffffffffff021916908373ffffffffffffffffffffffffffffffffffffffff1602179055506003820160009054906101000a900473ffffffffffffffffffffffffffffffffffffffff168160030160006101000a81548173ffffffffffffffffffffffffffffffffffffffff021916908373ffffffffffffffffffffffffffffffffffffffff1602179055505050505050565b600047905090565b565b600060205280600052604060002060009150905080600001549080600101805461084f906114f5565b80601f016020809104026020016040519081016040528092919081815260200182805461087b906114f5565b80156108c85780601f1061089d576101008083540402835291602001916108c8565b820191906000526020600020905b8154815290600101906020018083116108ab57829003601f168201915b5050505050908060020160009054906101000a900473ffffffffffffffffffffffffffffffffffffffff16908060030160009054906101000a900473ffffffffffffffffffffffffffffffffffffffff16905084565b6060610ac86003805480602002602001604051908101604052809291908181526020016000905b82821015610abf578382906000526020600020906004020160405180608001604052908160008201548152602001600182018054610982906114f5565b80601f01602080910402602001604051908101604052809291908181526020018280546109ae906114f5565b80156109fb5780601f106109d0576101008083540402835291602001916109fb565b820191906000526020600020905b8154815290600101906020018083116109de57829003601f168201915b505050505081526020016002820160009054906101000a900473ffffffffffffffffffffffffffffffffffffffff1673ffffffffffffffffffffffffffffffffffffffff1673ffffffffffffffffffffffffffffffffffffffff1681526020016003820160009054906101000a900473ffffffffffffffffffffffffffffffffffffffff1673ffffffffffffffffffffffffffffffffffffffff1673ffffffffffffffffffffffffffffffffffffffff168152505081526020019060010190610945565b50505050610acd565b905090565b60606000825167ffffffffffffffff811115610aec57610aeb6110d5565b5b604051908082528060200260200182016040528015610b2557816020015b610b12610e48565b815260200190600190039081610b0a5790505b50905060005b8351811015610d2b573373ffffffffffffffffffffffffffffffffffffffff16848281518110610b5e57610b5d611527565b5b60200260200101516060015173ffffffffffffffffffffffffffffffffffffffff161415610d1a5760038181548110610b9a57610b99611527565b5b906000526020600020906004020160405180608001604052908160008201548152602001600182018054610bcd906114f5565b80601f0160208091040260200160405190810160405280929190818152602001828054610bf9906114f5565b8015610c465780601f10610c1b57610100808354040283529160200191610c46565b820191906000526020600020905b815481529060010190602001808311610c2957829003601f168201915b505050505081526020016002820160009054906101000a900473ffffffffffffffffffffffffffffffffffffffff1673ffffffffffffffffffffffffffffffffffffffff1673ffffffffffffffffffffffffffffffffffffffff1681526020016003820160009054906101000a900473ffffffffffffffffffffffffffffffffffffffff1673ffffffffffffffffffffffffffffffffffffffff1673ffffffffffffffffffffffffffffffffffffffff1681525050828281518110610d0e57610d0d611527565b5b60200260200101819052505b80610d2490611585565b9050610b2b565b5080915050919050565b828054610d41906114f5565b90600052602060002090601f016020900481019282610d635760008555610daa565b82601f10610d7c57805160ff1916838001178555610daa565b82800160010185558215610daa579182015b82811115610da9578251825591602001919060010190610d8e565b5b509050610db79190610e9c565b5090565b828054610dc7906114f5565b90600052602060002090601f016020900481019282610de95760008555610e37565b82601f10610dfa5780548555610e37565b82800160010185558215610e3757600052602060002091601f016020900482015b82811115610e36578254825591600101919060010190610e1b565b5b509050610e449190610e9c565b5090565b60405180608001604052806000815260200160608152602001600073ffffffffffffffffffffffffffffffffffffffff168152602001600073ffffffffffffffffffffffffffffffffffffffff1681525090565b5b80821115610eb5576000816000905550600101610e9d565b5090565b6000819050919050565b610ecc81610eb9565b82525050565b6000602082019050610ee76000830184610ec3565b92915050565b6000604051905090565b600080fd5b600080fd5b600073ffffffffffffffffffffffffffffffffffffffff82169050919050565b6000610f2c82610f01565b9050919050565b610f3c81610f21565b8114610f4757600080fd5b50565b600081359050610f5981610f33565b92915050565b600060208284031215610f7557610f74610ef7565b5b6000610f8384828501610f4a565b91505092915050565b600081519050919050565b600082825260208201905092915050565b60005b83811015610fc6578082015181840152602081019050610fab565b83811115610fd5576000848401525b50505050565b6000601f19601f8301169050919050565b6000610ff782610f8c565b6110018185610f97565b9350611011818560208601610fa8565b61101a81610fdb565b840191505092915050565b61102e81610f21565b82525050565b60006060820190506110496000830186610ec3565b818103602083015261105b8185610fec565b905061106a6040830184611025565b949350505050565b61107b81610eb9565b811461108657600080fd5b50565b60008135905061109881611072565b92915050565b6000602082840312156110b4576110b3610ef7565b5b60006110c284828501611089565b91505092915050565b600080fd5b600080fd5b7f4e487b7100000000000000000000000000000000000000000000000000000000600052604160045260246000fd5b61110d82610fdb565b810181811067ffffffffffffffff8211171561112c5761112b6110d5565b5b80604052505050565b600061113f610eed565b905061114b8282611104565b919050565b600067ffffffffffffffff82111561116b5761116a6110d5565b5b61117482610fdb565b9050602081019050919050565b82818337600083830152505050565b60006111a361119e84611150565b611135565b9050828152602081018484840111156111bf576111be6110d0565b5b6111ca848285611181565b509392505050565b600082601f8301126111e7576111e66110cb565b5b81356111f7848260208601611190565b91505092915050565b600061120b82610f01565b9050919050565b61121b81611200565b811461122657600080fd5b50565b60008135905061123881611212565b92915050565b60008060006060848603121561125757611256610ef7565b5b600084013567ffffffffffffffff81111561127557611274610efc565b5b611281868287016111d2565b935050602061129286828701611229565b92505060406112a386828701611089565b9150509250925092565b6112b681611200565b82525050565b60006080820190506112d16000830187610ec3565b81810360208301526112e38186610fec565b90506112f260408301856112ad565b6112ff6060830184611025565b95945050505050565b600081519050919050565b600082825260208201905092915050565b6000819050602082019050919050565b61133d81610eb9565b82525050565b600082825260208201905092915050565b600061135f82610f8c565b6113698185611343565b9350611379818560208601610fa8565b61138281610fdb565b840191505092915050565b61139681611200565b82525050565b6113a581610f21565b82525050565b60006080830160008301516113c36000860182611334565b50602083015184820360208601526113db8282611354565b91505060408301516113f0604086018261138d565b506060830151611403606086018261139c565b508091505092915050565b600061141a83836113ab565b905092915050565b6000602082019050919050565b600061143a82611308565b6114448185611313565b93508360208202850161145685611324565b8060005b858110156114925784840389528151611473858261140e565b945061147e83611422565b925060208a0199505060018101905061145a565b50829750879550505050505092915050565b600060208201905081810360008301526114be818461142f565b905092915050565b7f4e487b7100000000000000000000000000000000000000000000000000000000600052602260045260246000fd5b6000600282049050600182168061150d57607f821691505b60208210811415611521576115206114c6565b5b50919050565b7f4e487b7100000000000000000000000000000000000000000000000000000000600052603260045260246000fd5b7f4e487b7100000000000000000000000000000000000000000000000000000000600052601160045260246000fd5b600061159082610eb9565b91507fffffffffffffffffffffffffffffffffffffffffffffffffffffffffffffffff8214156115c3576115c2611556565b5b60018201905091905056fea2646970667358221220e6e18abfd2bc8784b95cf5c5b0077bbb12cb7bbc04b48ddc62d7519149d1863664736f6c63430008090033",
  "linkReferences": {},
  "deployedLinkReferences": {}
}