{
  "_format": "hh-sol-artifact-1",
  "contractName": "SalaryPayment",
  "sourceName": "contracts/payrollSC.sol",
  "abi": [
    {
      "inputs": [],
      "stateMutability": "nonpayable",
      "type": "constructor"
    },
    {
      "inputs": [
        {
          "internalType": "address payable",
          "name": "employeeAddress",
          "type": "address"
        },
        {
          "internalType": "enum SalaryPayment.Designation",
          "name": "_position",
          "type": "uint8"
        }
      ],
      "name": "addEmployee",
      "outputs": [],
      "stateMutability": "nonpayable",
      "type": "function"
    },
    {
      "inputs": [
        {
          "internalType": "uint256",
          "name": "",
          "type": "uint256"
        }
      ],
      "name": "allCompanyEmployees",
      "outputs": [
        {
          "internalType": "address",
          "name": "",
          "type": "address"
        }
      ],
      "stateMutability": "view",
      "type": "function"
    },
    {
      "inputs": [],
      "name": "getAllEmployees",
      "outputs": [
        {
          "internalType": "address[]",
          "name": "",
          "type": "address[]"
        },
        {
          "internalType": "address[]",
          "name": "",
          "type": "address[]"
        },
        {
          "internalType": "address[]",
          "name": "",
          "type": "address[]"
        }
      ],
      "stateMutability": "view",
      "type": "function"
    },
    {
      "inputs": [
        {
          "internalType": "address",
          "name": "",
          "type": "address"
        }
      ],
      "name": "isEmployee",
      "outputs": [
        {
          "internalType": "bool",
          "name": "",
          "type": "bool"
        }
      ],
      "stateMutability": "view",
      "type": "function"
    },
    {
      "inputs": [],
      "name": "payEmployeesSalaries",
      "outputs": [],
      "stateMutability": "payable",
      "type": "function"
    }
  ],
  "bytecode": "0x608060405234801561001057600080fd5b50336000806101000a81548173ffffffffffffffffffffffffffffffffffffffff021916908373ffffffffffffffffffffffffffffffffffffffff160217905550610c13806100606000396000f3fe60806040526004361061004a5760003560e01c806307ffbebd1461004f57806362272f1b1461007857806364dcdd3414610082578063e3366fed146100bf578063ea66543f146100ec575b600080fd5b34801561005b57600080fd5b506100766004803603810190610071919061088f565b610129565b005b6100806104cf565b005b34801561008e57600080fd5b506100a960048036038101906100a49190610905565b6105fa565b6040516100b69190610953565b60405180910390f35b3480156100cb57600080fd5b506100d4610639565b6040516100e393929190610a2c565b60405180910390f35b3480156100f857600080fd5b50610113600480360381019061010e9190610aa4565b6107e7565b6040516101209190610aec565b60405180910390f35b60018060008473ffffffffffffffffffffffffffffffffffffffff1673ffffffffffffffffffffffffffffffffffffffff16815260200190815260200160002060006101000a81548160ff021916908315150217905550600080600281111561019557610194610b07565b5b8260028111156101a8576101a7610b07565b5b1415610220576004839080600181540180825580915050600190039060005260206000200160009091909190916101000a81548173ffffffffffffffffffffffffffffffffffffffff021916908373ffffffffffffffffffffffffffffffffffffffff160217905550662386f26fc10000905061035b565b6001600281111561023457610233610b07565b5b82600281111561024757610246610b07565b5b14156102bf576005839080600181540180825580915050600190039060005260206000200160009091909190916101000a81548173ffffffffffffffffffffffffffffffffffffffff021916908373ffffffffffffffffffffffffffffffffffffffff16021790555066470de4df820000905061035a565b6002808111156102d2576102d1610b07565b5b8260028111156102e5576102e4610b07565b5b1415610359576006839080600181540180825580915050600190039060005260206000200160009091909190916101000a81548173ffffffffffffffffffffffffffffffffffffffff021916908373ffffffffffffffffffffffffffffffffffffffff160217905550666a94d74f43000090505b5b5b600060405180606001604052808573ffffffffffffffffffffffffffffffffffffffff16815260200184600281111561039757610396610b07565b5b815260200183815250905080600260008673ffffffffffffffffffffffffffffffffffffffff1673ffffffffffffffffffffffffffffffffffffffff16815260200190815260200160002060008201518160000160006101000a81548173ffffffffffffffffffffffffffffffffffffffff021916908373ffffffffffffffffffffffffffffffffffffffff16021790555060208201518160000160146101000a81548160ff0219169083600281111561045457610453610b07565b5b0217905550604082015181600101559050506003849080600181540180825580915050600190039060005260206000200160009091909190916101000a81548173ffffffffffffffffffffffffffffffffffffffff021916908373ffffffffffffffffffffffffffffffffffffffff16021790555050505050565b60005b6003805490508110156105f757600381815481106104f3576104f2610b36565b5b9060005260206000200160009054906101000a900473ffffffffffffffffffffffffffffffffffffffff1673ffffffffffffffffffffffffffffffffffffffff166108fc600260006003858154811061054f5761054e610b36565b5b9060005260206000200160009054906101000a900473ffffffffffffffffffffffffffffffffffffffff1673ffffffffffffffffffffffffffffffffffffffff1673ffffffffffffffffffffffffffffffffffffffff168152602001908152602001600020600101549081150290604051600060405180830381858888f193505050501580156105e3573d6000803e3d6000fd5b5080806105ef90610b94565b9150506104d2565b50565b6003818154811061060a57600080fd5b906000526020600020016000915054906101000a900473ffffffffffffffffffffffffffffffffffffffff1681565b6060806060600460056006828054806020026020016040519081016040528092919081815260200182805480156106c557602002820191906000526020600020905b8160009054906101000a900473ffffffffffffffffffffffffffffffffffffffff1673ffffffffffffffffffffffffffffffffffffffff168152602001906001019080831161067b575b505050505092508180548060200260200160405190810160405280929190818152602001828054801561074d57602002820191906000526020600020905b8160009054906101000a900473ffffffffffffffffffffffffffffffffffffffff1673ffffffffffffffffffffffffffffffffffffffff1681526020019060010190808311610703575b50505050509150808054806020026020016040519081016040528092919081815260200182805480156107d557602002820191906000526020600020905b8160009054906101000a900473ffffffffffffffffffffffffffffffffffffffff1673ffffffffffffffffffffffffffffffffffffffff168152602001906001019080831161078b575b50505050509050925092509250909192565b60016020528060005260406000206000915054906101000a900460ff1681565b600080fd5b600073ffffffffffffffffffffffffffffffffffffffff82169050919050565b60006108378261080c565b9050919050565b6108478161082c565b811461085257600080fd5b50565b6000813590506108648161083e565b92915050565b6003811061087757600080fd5b50565b6000813590506108898161086a565b92915050565b600080604083850312156108a6576108a5610807565b5b60006108b485828601610855565b92505060206108c58582860161087a565b9150509250929050565b6000819050919050565b6108e2816108cf565b81146108ed57600080fd5b50565b6000813590506108ff816108d9565b92915050565b60006020828403121561091b5761091a610807565b5b6000610929848285016108f0565b91505092915050565b600061093d8261080c565b9050919050565b61094d81610932565b82525050565b60006020820190506109686000830184610944565b92915050565b600081519050919050565b600082825260208201905092915050565b6000819050602082019050919050565b6109a381610932565b82525050565b60006109b5838361099a565b60208301905092915050565b6000602082019050919050565b60006109d98261096e565b6109e38185610979565b93506109ee8361098a565b8060005b83811015610a1f578151610a0688826109a9565b9750610a11836109c1565b9250506001810190506109f2565b5085935050505092915050565b60006060820190508181036000830152610a4681866109ce565b90508181036020830152610a5a81856109ce565b90508181036040830152610a6e81846109ce565b9050949350505050565b610a8181610932565b8114610a8c57600080fd5b50565b600081359050610a9e81610a78565b92915050565b600060208284031215610aba57610ab9610807565b5b6000610ac884828501610a8f565b91505092915050565b60008115159050919050565b610ae681610ad1565b82525050565b6000602082019050610b016000830184610add565b92915050565b7f4e487b7100000000000000000000000000000000000000000000000000000000600052602160045260246000fd5b7f4e487b7100000000000000000000000000000000000000000000000000000000600052603260045260246000fd5b7f4e487b7100000000000000000000000000000000000000000000000000000000600052601160045260246000fd5b6000610b9f826108cf565b91507fffffffffffffffffffffffffffffffffffffffffffffffffffffffffffffffff821415610bd257610bd1610b65565b5b60018201905091905056fea264697066735822122076584a82a9a3d31046cef0844f8cc8cdbfb355689c2149e4a2dba16059f8348464736f6c63430008090033",
  "linkReferences": {},
  "deployedLinkReferences": {}
}