{
  "_format": "hh-sol-artifact-1",
  "contractName": "SalaryPayment",
  "sourceName": "contracts/payrollSC.sol",
  "abi": [
    {
      "inputs": [
        {
          "internalType": "string",
          "name": "_name",
          "type": "string"
        },
        {
          "internalType": "address payable",
          "name": "_wallet",
          "type": "address"
        },
        {
          "internalType": "uint256",
          "name": "_salary",
          "type": "uint256"
        }
      ],
      "name": "addEmployee",
      "outputs": [],
      "stateMutability": "nonpayable",
      "type": "function"
    },
    {
      "inputs": [
        {
          "internalType": "address",
          "name": "",
          "type": "address"
        }
      ],
      "name": "employees",
      "outputs": [
        {
          "internalType": "uint256",
          "name": "salary",
          "type": "uint256"
        },
        {
          "internalType": "string",
          "name": "name",
          "type": "string"
        },
        {
          "internalType": "address payable",
          "name": "wallet",
          "type": "address"
        },
        {
          "internalType": "address",
          "name": "companyAddress",
          "type": "address"
        }
      ],
      "stateMutability": "view",
      "type": "function"
    },
    {
      "inputs": [],
      "name": "getAddressBalance",
      "outputs": [
        {
          "internalType": "uint256",
          "name": "",
          "type": "uint256"
        }
      ],
      "stateMutability": "view",
      "type": "function"
    },
    {
      "inputs": [],
      "name": "getAllCompanyEmployee",
      "outputs": [
        {
          "components": [
            {
              "internalType": "uint256",
              "name": "salary",
              "type": "uint256"
            },
            {
              "internalType": "string",
              "name": "name",
              "type": "string"
            },
            {
              "internalType": "address payable",
              "name": "wallet",
              "type": "address"
            },
            {
              "internalType": "address",
              "name": "companyAddress",
              "type": "address"
            }
          ],
          "internalType": "struct SalaryPayment.Employee[]",
          "name": "c",
          "type": "tuple[]"
        }
      ],
      "stateMutability": "view",
      "type": "function"
    },
    {
      "inputs": [
        {
          "internalType": "address",
          "name": "_wallet",
          "type": "address"
        }
      ],
      "name": "getEmployee",
      "outputs": [
        {
          "internalType": "uint256",
          "name": "",
          "type": "uint256"
        },
        {
          "internalType": "string",
          "name": "",
          "type": "string"
        },
        {
          "internalType": "address",
          "name": "",
          "type": "address"
        }
      ],
      "stateMutability": "view",
      "type": "function"
    },
    {
      "inputs": [],
      "name": "paySalaries",
      "outputs": [],
      "stateMutability": "payable",
      "type": "function"
    },
    {
      "inputs": [],
      "name": "receivePayment",
      "outputs": [],
      "stateMutability": "payable",
      "type": "function"
    },
    {
      "inputs": [],
      "name": "salaryDate",
      "outputs": [
        {
          "internalType": "uint256",
          "name": "",
          "type": "uint256"
        }
      ],
      "stateMutability": "view",
      "type": "function"
    },
    {
      "inputs": [
        {
          "internalType": "uint256",
          "name": "_salaryDate",
          "type": "uint256"
        }
      ],
      "name": "setSalaryDate",
      "outputs": [],
      "stateMutability": "nonpayable",
      "type": "function"
    }
  ],
  "bytecode": "0x608060405233600460006101000a81548173ffffffffffffffffffffffffffffffffffffffff021916908373ffffffffffffffffffffffffffffffffffffffff16021790555034801561005157600080fd5b506118b8806100616000396000f3fe6080604052600436106100865760003560e01c80636cf947cf116100595780636cf947cf1461012857806375eb2ad114610151578063835c19f31461017c578063d067894714610186578063e4eacbb9146101c657610086565b8063244855351461008b57806332648e09146100b657806342e36b3b146100f55780635202fe5a146100ff575b600080fd5b34801561009757600080fd5b506100a06101f1565b6040516100ad919061111a565b60405180910390f35b3480156100c257600080fd5b506100dd60048036038101906100d891906111a7565b6101f7565b6040516100ec9392919061127c565b60405180910390f35b6100fd61037b565b005b34801561010b57600080fd5b50610126600480360381019061012191906112e6565b610596565b005b34801561013457600080fd5b5061014f600480360381019061014a9190611486565b610632565b005b34801561015d57600080fd5b506101666109d2565b604051610173919061111a565b60405180910390f35b6101846109da565b005b34801561019257600080fd5b506101ad60048036038101906101a891906111a7565b6109dc565b6040516101bd9493929190611504565b60405180910390f35b3480156101d257600080fd5b506101db610ad4565b6040516101e891906116ec565b60405180910390f35b60025481565b6000606060008060008573ffffffffffffffffffffffffffffffffffffffff1673ffffffffffffffffffffffffffffffffffffffff168152602001908152602001600020600001546000808673ffffffffffffffffffffffffffffffffffffffff1673ffffffffffffffffffffffffffffffffffffffff1681526020019081526020016000206001016000808773ffffffffffffffffffffffffffffffffffffffff1673ffffffffffffffffffffffffffffffffffffffff16815260200190815260200160002060020160009054906101000a900473ffffffffffffffffffffffffffffffffffffffff168180546102ee9061173d565b80601f016020809104026020016040519081016040528092919081815260200182805461031a9061173d565b80156103675780601f1061033c57610100808354040283529160200191610367565b820191906000526020600020905b81548152906001019060200180831161034a57829003601f168201915b505050505091509250925092509193909250565b600460009054906101000a900473ffffffffffffffffffffffffffffffffffffffff168073ffffffffffffffffffffffffffffffffffffffff163373ffffffffffffffffffffffffffffffffffffffff161461040c576040517f08c379a0000000000000000000000000000000000000000000000000000000008152600401610403906117bb565b60405180910390fd5b60005b6001805490508110156105925760008060018381548110610433576104326117db565b5b9060005260206000200160009054906101000a900473ffffffffffffffffffffffffffffffffffffffff1673ffffffffffffffffffffffffffffffffffffffff1673ffffffffffffffffffffffffffffffffffffffff16815260200190815260200160002060020160009054906101000a900473ffffffffffffffffffffffffffffffffffffffff1673ffffffffffffffffffffffffffffffffffffffff166108fc600080600185815481106104ec576104eb6117db565b5b9060005260206000200160009054906101000a900473ffffffffffffffffffffffffffffffffffffffff1673ffffffffffffffffffffffffffffffffffffffff1673ffffffffffffffffffffffffffffffffffffffff168152602001908152602001600020600001549081150290604051600060405180830381858888f19350505050158015610580573d6000803e3d6000fd5b508061058b90611839565b905061040f565b5050565b600460009054906101000a900473ffffffffffffffffffffffffffffffffffffffff168073ffffffffffffffffffffffffffffffffffffffff163373ffffffffffffffffffffffffffffffffffffffff1614610627576040517f08c379a000000000000000000000000000000000000000000000000000000000815260040161061e906117bb565b60405180910390fd5b816002819055505050565b600460009054906101000a900473ffffffffffffffffffffffffffffffffffffffff168073ffffffffffffffffffffffffffffffffffffffff163373ffffffffffffffffffffffffffffffffffffffff16146106c3576040517f08c379a00000000000000000000000000000000000000000000000000000000081526004016106ba906117bb565b60405180910390fd5b60405180608001604052808381526020018581526020018473ffffffffffffffffffffffffffffffffffffffff1681526020013373ffffffffffffffffffffffffffffffffffffffff168152506000808573ffffffffffffffffffffffffffffffffffffffff1673ffffffffffffffffffffffffffffffffffffffff168152602001908152602001600020600082015181600001556020820151816001019080519060200190610774929190610f7d565b5060408201518160020160006101000a81548173ffffffffffffffffffffffffffffffffffffffff021916908373ffffffffffffffffffffffffffffffffffffffff16021790555060608201518160030160006101000a81548173ffffffffffffffffffffffffffffffffffffffff021916908373ffffffffffffffffffffffffffffffffffffffff1602179055509050506001839080600181540180825580915050600190039060005260206000200160009091909190916101000a81548173ffffffffffffffffffffffffffffffffffffffff021916908373ffffffffffffffffffffffffffffffffffffffff16021790555060036000808573ffffffffffffffffffffffffffffffffffffffff1673ffffffffffffffffffffffffffffffffffffffff16815260200190815260200160002090806001815401808255809150506001900390600052602060002090600402016000909190919091506000820154816000015560018201816001019080546108f09061173d565b6108fb929190611003565b506002820160009054906101000a900473ffffffffffffffffffffffffffffffffffffffff168160020160006101000a81548173ffffffffffffffffffffffffffffffffffffffff021916908373ffffffffffffffffffffffffffffffffffffffff1602179055506003820160009054906101000a900473ffffffffffffffffffffffffffffffffffffffff168160030160006101000a81548173ffffffffffffffffffffffffffffffffffffffff021916908373ffffffffffffffffffffffffffffffffffffffff160217905550505050505050565b600047905090565b565b6000602052806000526040600020600091509050806000015490806001018054610a059061173d565b80601f0160208091040260200160405190810160405280929190818152602001828054610a319061173d565b8015610a7e5780601f10610a5357610100808354040283529160200191610a7e565b820191906000526020600020905b815481529060010190602001808311610a6157829003601f168201915b5050505050908060020160009054906101000a900473ffffffffffffffffffffffffffffffffffffffff16908060030160009054906101000a900473ffffffffffffffffffffffffffffffffffffffff16905084565b6060600460009054906101000a900473ffffffffffffffffffffffffffffffffffffffff168073ffffffffffffffffffffffffffffffffffffffff163373ffffffffffffffffffffffffffffffffffffffff1614610b67576040517f08c379a0000000000000000000000000000000000000000000000000000000008152600401610b5e906117bb565b60405180910390fd5b610d0f6003805480602002602001604051908101604052809291908181526020016000905b82821015610d06578382906000526020600020906004020160405180608001604052908160008201548152602001600182018054610bc99061173d565b80601f0160208091040260200160405190810160405280929190818152602001828054610bf59061173d565b8015610c425780601f10610c1757610100808354040283529160200191610c42565b820191906000526020600020905b815481529060010190602001808311610c2557829003601f168201915b505050505081526020016002820160009054906101000a900473ffffffffffffffffffffffffffffffffffffffff1673ffffffffffffffffffffffffffffffffffffffff1673ffffffffffffffffffffffffffffffffffffffff1681526020016003820160009054906101000a900473ffffffffffffffffffffffffffffffffffffffff1673ffffffffffffffffffffffffffffffffffffffff1673ffffffffffffffffffffffffffffffffffffffff168152505081526020019060010190610b8c565b50505050610d15565b91505090565b60606000825167ffffffffffffffff811115610d3457610d3361131d565b5b604051908082528060200260200182016040528015610d6d57816020015b610d5a611090565b815260200190600190039081610d525790505b50905060005b8351811015610f73573373ffffffffffffffffffffffffffffffffffffffff16848281518110610da657610da56117db565b5b60200260200101516060015173ffffffffffffffffffffffffffffffffffffffff161415610f625760038181548110610de257610de16117db565b5b906000526020600020906004020160405180608001604052908160008201548152602001600182018054610e159061173d565b80601f0160208091040260200160405190810160405280929190818152602001828054610e419061173d565b8015610e8e5780601f10610e6357610100808354040283529160200191610e8e565b820191906000526020600020905b815481529060010190602001808311610e7157829003601f168201915b505050505081526020016002820160009054906101000a900473ffffffffffffffffffffffffffffffffffffffff1673ffffffffffffffffffffffffffffffffffffffff1673ffffffffffffffffffffffffffffffffffffffff1681526020016003820160009054906101000a900473ffffffffffffffffffffffffffffffffffffffff1673ffffffffffffffffffffffffffffffffffffffff1673ffffffffffffffffffffffffffffffffffffffff1681525050828281518110610f5657610f556117db565b5b60200260200101819052505b80610f6c90611839565b9050610d73565b5080915050919050565b828054610f899061173d565b90600052602060002090601f016020900481019282610fab5760008555610ff2565b82601f10610fc457805160ff1916838001178555610ff2565b82800160010185558215610ff2579182015b82811115610ff1578251825591602001919060010190610fd6565b5b509050610fff91906110e4565b5090565b82805461100f9061173d565b90600052602060002090601f016020900481019282611031576000855561107f565b82601f10611042578054855561107f565b8280016001018555821561107f57600052602060002091601f016020900482015b8281111561107e578254825591600101919060010190611063565b5b50905061108c91906110e4565b5090565b60405180608001604052806000815260200160608152602001600073ffffffffffffffffffffffffffffffffffffffff168152602001600073ffffffffffffffffffffffffffffffffffffffff1681525090565b5b808211156110fd5760008160009055506001016110e5565b5090565b6000819050919050565b61111481611101565b82525050565b600060208201905061112f600083018461110b565b92915050565b6000604051905090565b600080fd5b600080fd5b600073ffffffffffffffffffffffffffffffffffffffff82169050919050565b600061117482611149565b9050919050565b61118481611169565b811461118f57600080fd5b50565b6000813590506111a18161117b565b92915050565b6000602082840312156111bd576111bc61113f565b5b60006111cb84828501611192565b91505092915050565b600081519050919050565b600082825260208201905092915050565b60005b8381101561120e5780820151818401526020810190506111f3565b8381111561121d576000848401525b50505050565b6000601f19601f8301169050919050565b600061123f826111d4565b61124981856111df565b93506112598185602086016111f0565b61126281611223565b840191505092915050565b61127681611169565b82525050565b6000606082019050611291600083018661110b565b81810360208301526112a38185611234565b90506112b2604083018461126d565b949350505050565b6112c381611101565b81146112ce57600080fd5b50565b6000813590506112e0816112ba565b92915050565b6000602082840312156112fc576112fb61113f565b5b600061130a848285016112d1565b91505092915050565b600080fd5b600080fd5b7f4e487b7100000000000000000000000000000000000000000000000000000000600052604160045260246000fd5b61135582611223565b810181811067ffffffffffffffff821117156113745761137361131d565b5b80604052505050565b6000611387611135565b9050611393828261134c565b919050565b600067ffffffffffffffff8211156113b3576113b261131d565b5b6113bc82611223565b9050602081019050919050565b82818337600083830152505050565b60006113eb6113e684611398565b61137d565b90508281526020810184848401111561140757611406611318565b5b6114128482856113c9565b509392505050565b600082601f83011261142f5761142e611313565b5b813561143f8482602086016113d8565b91505092915050565b600061145382611149565b9050919050565b61146381611448565b811461146e57600080fd5b50565b6000813590506114808161145a565b92915050565b60008060006060848603121561149f5761149e61113f565b5b600084013567ffffffffffffffff8111156114bd576114bc611144565b5b6114c98682870161141a565b93505060206114da86828701611471565b92505060406114eb868287016112d1565b9150509250925092565b6114fe81611448565b82525050565b6000608082019050611519600083018761110b565b818103602083015261152b8186611234565b905061153a60408301856114f5565b611547606083018461126d565b95945050505050565b600081519050919050565b600082825260208201905092915050565b6000819050602082019050919050565b61158581611101565b82525050565b600082825260208201905092915050565b60006115a7826111d4565b6115b1818561158b565b93506115c18185602086016111f0565b6115ca81611223565b840191505092915050565b6115de81611448565b82525050565b6115ed81611169565b82525050565b600060808301600083015161160b600086018261157c565b5060208301518482036020860152611623828261159c565b915050604083015161163860408601826115d5565b50606083015161164b60608601826115e4565b508091505092915050565b600061166283836115f3565b905092915050565b6000602082019050919050565b600061168282611550565b61168c818561155b565b93508360208202850161169e8561156c565b8060005b858110156116da57848403895281516116bb8582611656565b94506116c68361166a565b925060208a019950506001810190506116a2565b50829750879550505050505092915050565b600060208201905081810360008301526117068184611677565b905092915050565b7f4e487b7100000000000000000000000000000000000000000000000000000000600052602260045260246000fd5b6000600282049050600182168061175557607f821691505b602082108114156117695761176861170e565b5b50919050565b7f496e76616c696420616464726573730000000000000000000000000000000000600082015250565b60006117a5600f836111df565b91506117b08261176f565b602082019050919050565b600060208201905081810360008301526117d481611798565b9050919050565b7f4e487b7100000000000000000000000000000000000000000000000000000000600052603260045260246000fd5b7f4e487b7100000000000000000000000000000000000000000000000000000000600052601160045260246000fd5b600061184482611101565b91507fffffffffffffffffffffffffffffffffffffffffffffffffffffffffffffffff8214156118775761187661180a565b5b60018201905091905056fea26469706673582212208ddfc310c6283cb03c65f21852a7cd40e86992c90212df0c7ada1edd95d1359264736f6c63430008090033",
  "linkReferences": {},
  "deployedLinkReferences": {}
}