{
  "_format": "hh-sol-artifact-1",
  "contractName": "onBoarding",
  "sourceName": "contracts/customer.sol",
  "abi": [
    {
      "inputs": [],
      "name": "GetAllRegisteredCompany",
      "outputs": [
        {
          "internalType": "string[]",
          "name": "",
          "type": "string[]"
        }
      ],
      "stateMutability": "view",
      "type": "function"
    },
    {
      "inputs": [
        {
          "internalType": "uint256",
          "name": "",
          "type": "uint256"
        }
      ],
      "name": "customerAddress",
      "outputs": [
        {
          "internalType": "address",
          "name": "",
          "type": "address"
        }
      ],
      "stateMutability": "view",
      "type": "function"
    },
    {
      "inputs": [
        {
          "internalType": "address",
          "name": "",
          "type": "address"
        }
      ],
      "name": "customerInfo",
      "outputs": [
        {
          "internalType": "string",
          "name": "",
          "type": "string"
        }
      ],
      "stateMutability": "view",
      "type": "function"
    },
    {
      "inputs": [
        {
          "internalType": "string",
          "name": "_name",
          "type": "string"
        }
      ],
      "name": "onboardCustomers",
      "outputs": [],
      "stateMutability": "nonpayable",
      "type": "function"
    }
  ],
  "bytecode": "0x608060405233600360006101000a81548173ffffffffffffffffffffffffffffffffffffffff021916908373ffffffffffffffffffffffffffffffffffffffff16021790555034801561005157600080fd5b50610a57806100616000396000f3fe608060405234801561001057600080fd5b506004361061004c5760003560e01c80635af6ae6114610051578063a8d231c91461006d578063aa91ebb01461008b578063bbb54ffd146100bb575b600080fd5b61006b600480360381019061006691906105f5565b6100eb565b005b61007561023a565b6040516100829190610788565b60405180910390f35b6100a560048036038101906100a091906107e0565b610319565b6040516100b2919061084e565b60405180910390f35b6100d560048036038101906100d09190610895565b610358565b6040516100e2919061090c565b60405180910390f35b60003373ffffffffffffffffffffffffffffffffffffffff163111610145576040517f08c379a000000000000000000000000000000000000000000000000000000000815260040161013c906109a0565b60405180910390fd5b806000803373ffffffffffffffffffffffffffffffffffffffff1673ffffffffffffffffffffffffffffffffffffffff16815260200190815260200160002090805190602001906101979291906103f8565b506001339080600181540180825580915050600190039060005260206000200160009091909190916101000a81548173ffffffffffffffffffffffffffffffffffffffff021916908373ffffffffffffffffffffffffffffffffffffffff1602179055506002819080600181540180825580915050600190039060005260206000200160009091909190915090805190602001906102369291906103f8565b5050565b606060006002805480602002602001604051908101604052809291908181526020016000905b8282101561030c57838290600052602060002001805461027f906109ef565b80601f01602080910402602001604051908101604052809291908181526020018280546102ab906109ef565b80156102f85780601f106102cd576101008083540402835291602001916102f8565b820191906000526020600020905b8154815290600101906020018083116102db57829003601f168201915b505050505081526020019060010190610260565b5050505090508091505090565b6001818154811061032957600080fd5b906000526020600020016000915054906101000a900473ffffffffffffffffffffffffffffffffffffffff1681565b60006020528060005260406000206000915090508054610377906109ef565b80601f01602080910402602001604051908101604052809291908181526020018280546103a3906109ef565b80156103f05780601f106103c5576101008083540402835291602001916103f0565b820191906000526020600020905b8154815290600101906020018083116103d357829003601f168201915b505050505081565b828054610404906109ef565b90600052602060002090601f016020900481019282610426576000855561046d565b82601f1061043f57805160ff191683800117855561046d565b8280016001018555821561046d579182015b8281111561046c578251825591602001919060010190610451565b5b50905061047a919061047e565b5090565b5b8082111561049757600081600090555060010161047f565b5090565b6000604051905090565b600080fd5b600080fd5b600080fd5b600080fd5b6000601f19601f8301169050919050565b7f4e487b7100000000000000000000000000000000000000000000000000000000600052604160045260246000fd5b610502826104b9565b810181811067ffffffffffffffff82111715610521576105206104ca565b5b80604052505050565b600061053461049b565b905061054082826104f9565b919050565b600067ffffffffffffffff8211156105605761055f6104ca565b5b610569826104b9565b9050602081019050919050565b82818337600083830152505050565b600061059861059384610545565b61052a565b9050828152602081018484840111156105b4576105b36104b4565b5b6105bf848285610576565b509392505050565b600082601f8301126105dc576105db6104af565b5b81356105ec848260208601610585565b91505092915050565b60006020828403121561060b5761060a6104a5565b5b600082013567ffffffffffffffff811115610629576106286104aa565b5b610635848285016105c7565b91505092915050565b600081519050919050565b600082825260208201905092915050565b6000819050602082019050919050565b600081519050919050565b600082825260208201905092915050565b60005b838110156106a4578082015181840152602081019050610689565b838111156106b3576000848401525b50505050565b60006106c48261066a565b6106ce8185610675565b93506106de818560208601610686565b6106e7816104b9565b840191505092915050565b60006106fe83836106b9565b905092915050565b6000602082019050919050565b600061071e8261063e565b6107288185610649565b93508360208202850161073a8561065a565b8060005b85811015610776578484038952815161075785826106f2565b945061076283610706565b925060208a0199505060018101905061073e565b50829750879550505050505092915050565b600060208201905081810360008301526107a28184610713565b905092915050565b6000819050919050565b6107bd816107aa565b81146107c857600080fd5b50565b6000813590506107da816107b4565b92915050565b6000602082840312156107f6576107f56104a5565b5b6000610804848285016107cb565b91505092915050565b600073ffffffffffffffffffffffffffffffffffffffff82169050919050565b60006108388261080d565b9050919050565b6108488161082d565b82525050565b6000602082019050610863600083018461083f565b92915050565b6108728161082d565b811461087d57600080fd5b50565b60008135905061088f81610869565b92915050565b6000602082840312156108ab576108aa6104a5565b5b60006108b984828501610880565b91505092915050565b600082825260208201905092915050565b60006108de8261066a565b6108e881856108c2565b93506108f8818560208601610686565b610901816104b9565b840191505092915050565b6000602082019050818103600083015261092681846108d3565b905092915050565b7f596f7520646f6e2774206861766520612073756666696369656e742062616c6160008201527f6e636520746f20706572666f726d2074686973207472616e73616374696f6e00602082015250565b600061098a603f836108c2565b91506109958261092e565b604082019050919050565b600060208201905081810360008301526109b98161097d565b9050919050565b7f4e487b7100000000000000000000000000000000000000000000000000000000600052602260045260246000fd5b60006002820490506001821680610a0757607f821691505b60208210811415610a1b57610a1a6109c0565b5b5091905056fea2646970667358221220e44cd049c93f44c377fbc07649e73b7ea692ad13c5275f551734ffde98ff9c7764736f6c63430008090033",
  "linkReferences": {},
  "deployedLinkReferences": {}
}